:020000040800F2
:1000000008E90020118D0008D9030008DB0300086F
:10001000DF030008E3030008E70300080000000016
:10002000000000000000000000000000EB030008DA
:10003000ED03000800000000EF030008F1030008D2
:100040002B8D00082B8D00082B8D00082B8D0008B0
:100050002B8D00082B8D00082B8D00082B8D0008A0
:100060002B8D00082B8D00082B8D00082B8D000890
:100070002B8D00082B8D00082B8D00082B8D000880
:100080002B8D00082B8D00082B8D00082B8D000870
:100090002B8D00082B8D00082B8D00082B8D000860
:1000A0002B8D00082B8D00082B8D00082B8D000850
:1000B0002B8D00082B8D0008BF1500082B8D000824
:1000C0002B8D00082B8D00082B8D00082B8D000830
:1000D0002B8D0008738C00082B8D00082B8D0008D9
:1000E0002B8D00082B8D00082B8D00082B8D000810
:1000F0002B8D00082B8D00082B8D00082B8D000800
:100100002B8D00086D7600082B8D00082B8D0008C4
:100110002B8D00082B8D00082B8D00082B8D0008DF
:100120002B8D00082B8D00082B8D00082B8D0008CF
:100130002B8D00082B8D00082B8D00082B8D0008BF
:100140002B8D00082B8D00082B8D000835CD010864
:100150002B8D00082B8D00082B8D0008D18A0008FC
:100160002B8D00082B8D00082B8D00082B8D00088F
:100170002B8D00082B8D00082B8D00082B8D00087F
:100180002B8D00082B8D000800F002F800F0B4F869
:100190000AA090E8000C82448344AAF10107DA45E2
:1001A00001D100F0A9F8AFF2090EBAE80F0013F080
:1001B000010F18BFFB1A43F0010318479C190400F4
:1001C000BC1904000A444FF0000C10F8013B13F076
:1001D000070408BF10F8014B1D1108BF10F8015BA0
:1001E000641E05D010F8016B641E01F8016BF9D193
:1001F00013F0080F1EBF10F8014BAD1C0C1B09D1EA
:100200006D1E58BF01F801CBFAD505E014F8016B5B
:1002100001F8016B6D1EF9D59142D6D370470000ED
:100220000023002400250026103A28BF78C1FBD8FF
:10023000520728BF30C148BF0B6070476E291DF0C0
:10024000798270291CF0D787662920F0D48465292B
:1002500020F0D184672920F0CE84612920F0CD845C
:1002600003681B0A28BF41F0800169291CF04887F8
:1002700064291CF0458775291CF042876F291DF001
:10028000808578291CF0A387E9291DF01B85E429C6
:100290001DF01885F5291DF01585EF291DF07D85C8
:1002A000F8291CF0A2870368DB0928BF41F0800110
:1002B00063291DF08A8473291DF08F84E3291DF0C2
:1002C000FF87F3291EF00480002070471FB520F03F
:1002D00088FC1DF082F81DF0E1FD040000200021E3
:1002E0001FF0B8FD401C6060002000211FF09CFD45
:1002F000E0601FBD10B510BD1EF0D4F81146FFF729
:10030000E5FF00F02BF81EF000F903B4FFF7F2FF51
:1003100003BC08F053FB000030BF72B6704762B6F2
:10032000704780F3088870470B49D1F800C04A68CD
:100330005CF8043B1068184442F8040B8C4528BF55
:10034000A1F1DC0C8A4228BFA1F1DC02C1F800C097
:100350004A6020F000407047A0E200204FF4A06007
:1003600008F0F6FC542008F0A7FA4FF4E13008F04A
:1003700050FB4FF4E13008F009FC092142F2CF00B4
:1003800001F0D8F801F004FB00F0EAFD00F038F9C4
:1003900000F059FF00F0DFFF0D4801F044F868203D
:1003A00000F060FC00200BF07CF90EF0D5FC13F09F
:1003B0001BFB12F034FE13F06CFC0649012000F028
:1003C000DDFC00F01AFD01E010F05EFEFCE700002D
:1003D000820C020801000500704700BFFEE700BF65
:1003E000FEE700BFFEE700BFFEE7704770477047BB
:1003F000704700000CB5002001900090754800681F
:1004000040F480307349086000BF7248006800F40F
:10041000003000900198401C0190009818B9019894
:10042000B0F5A04FF1D16B48006800F4003010B176
:100430000120009001E0002000900098012844D1A4
:1004400064484030006840F08050624940310860A4
:100450006148006840F440405F4908605D480830EA
:1004600000685C4908310860084600680860084672
:10047000006840F4805008605848091F0860081F51
:10048000006840F08070091F086000BF5148006894
:1004900000F000700028F9D040F202705049086066
:1004A0004C480830006820F003004A4908310860D1
:1004B0000846006840F00200086000BF4548083068
:1004C000006800F00C000828F8D10CBD10B54548B4
:1004D000006840F47000434908603E48006840F0FE
:1004E00001003C49086000203A4908310860394859
:1004F00000683D490840374908603C48091D0860CC
:10050000081F006820F48020091F0860002031497E
:100510000C310860FFF76EFF4FF000603149803901
:10052000086010BD70B500200022022300240221C3
:10053000284D08352D6805F00C0020B1042806D0A0
:10054000082834D107E02A4D2A4E356033E02A4D81
:10055000284E35602FE01F4D2D1D2D68C5F38054AA
:100560001C4D2D1D2D6805F03F0154B1224DB5FBEA
:10057000F1F5184E361D3668C6F3881605FB06F2EF
:1005800009E01B4DB5FBF1F5124E361D3668C6F37A
:10059000881605FB06F20F4D2D1D2D68C5F301458C
:1005A0006D1C6B00B2FBF3F5124E356003E0104D8D
:1005B000104E356000BF00BF064D08352D68C5F3ED
:1005C00003150E4E705D0B4D2D68C540094E35600C
:1005D00070BD00000038024000700040195441070F
:1005E000003C024088ED00E0FFFFF6FE10300024E2
:1005F0000024F4000800002040787D010C00002059
:100600001CB50121042009F025F84FF4005000909A
:1006100001208DF8040000208DF8060003208DF8DD
:10062000050001208DF807006946044808F086FCA3
:100630004FF40051014808F0FDFC1CBD00080240C9
:1006400010B5044600BF0221A8480AF0B7FD0028F3
:10065000F9D02146A5480AF068FD00BF0121A34852
:100660000AF0ACFD0028F9D0A0480AF05BFDC0B24A
:1006700010BD00B587B00121022008F0EBFF012179
:10068000880309F030F84FF46040059002208DF89F
:10069000180000208DF81A0003208DF819000120A1
:1006A0008DF81B0005A9924808F048FC05220D2191
:1006B0008F4808F0CEFC05220E218D4808F0C9FCB9
:1006C00005220F218A4808F0C4FC0121880309F0A3
:1006D0005FF800214FF4804009F05AF80020ADF88F
:1006E00000004FF48270ADF802000020ADF8040065
:1006F0000220ADF806000120ADF808004002ADF878
:100700000A003820ADF80C000020ADF80E000720DC
:10071000ADF81000694675480AF08CFB012173485A
:100720000AF082FCFF20FFF78BFF07B000BD10B579
:1007300004466E4800884FF6C77108406B49088030
:100740000846008820430880012168480AF06CFCB4
:1007500010BD10B5044600BF022164480AF02EFD0A
:100760000028F9D0214661480AF0DFFC10BD10B521
:1007700000BF01215D480AF021FD0028F9D05B4847
:100780000AF0D0FCC0B210BD00B587B00121084608
:1007900008F060FF0121080308F0B6FF02208DF881
:1007A000040000208DF80600E020009000208DF865
:1007B000070003208DF8050069464E4808F0BEFB8F
:1007C00001208DF8040000208DF806004FF4004051
:1007D000009000208DF8070003208DF80500694681
:1007E000444808F0ABFB05221146424808F031FCB2
:1007F000052206213F4808F02CFC052207213D4830
:1008000008F027FC3820ADF814000020ADF81000E7
:10081000ADF80E000720ADF818000020ADF80C0070
:10082000ADF80800ADF816004FF48270ADF80A007C
:100830004FF40070ADF8120002A92F480AF0FAFA3E
:1008400001212D480AF0F0FB07B000BD10B50446A9
:100850004FF40041274808F0EFFB00BF0221264873
:100860000AF0ACFC0028F9D0214623480AF05DFCD0
:10087000012008F03BF84FF400411E4808F0DAFB75
:1008800010BD10B5044600BF02211B480AF096FCBB
:100890000028F9D0214618480AF047FC10BD10B5D1
:1008A00000BF012114480AF089FC0028F9D0124841
:1008B0000AF038FCC0B210BD10B5044600BF0221DA
:1008C0000D480AF07BFC0028F9D021460A480AF0BE
:1008D0002CFC00BF012108480AF070FC0028F9D068
:1008E00005480AF01FFCC0B210BD000000380040EF
:1008F00000040240000002400030014010B5002416
:100900000020D14908609020FFF79AFE0020FFF7F1
:1009100097FE0020FFF794FE0020FFF791FEFF20D6
:10092000FFF78EFE44EA0024FF20FFF789FE044310
:100930000120C649C1F8B002204610BD1CB50121F6
:10094000022008F087FE4FF48050009001208DF8BF
:10095000040000208DF8060003208DF8050001201A
:100960008DF807006946BA4808F0E8FA0120B64950
:100970000860FFF77EFE0020FFF7D9FEFFF7BEFFFD
:10098000B44908801CBD10B500240020AE490860A1
:100990000520FFF755FEFF20FFF752FE0446012019
:1009A000AA49C1F8B002204610BD10B50446002087
:1009B000A54908600120FFF743FE2046FFF740FEEF
:1009C0000120A249C1F8B00210BD10B500209E4917
:1009D00008600620FFF734FE01209C49C1F8B002F0
:1009E00010BD10B50020984908600420FFF728FECC
:1009F00001209649C1F8B00210BD2DE9F04106462C
:100A00000C4617460020904908600320FFF718FEA7
:100A1000C4F30740FFF714FEC4F30720FFF710FEEE
:100A2000E0B2FFF70DFE002505E0FF20FFF708FE0E
:100A30007055681C85B2BD42F7DB01208249086011
:100A4000BDE8F08110B500BFFFF79DFF00F0010089
:100A50000028F9D110BD2DE9F04106460C46174695
:100A6000FFF7B3FF0020784908600220FFF7E8FD98
:100A7000C4F30740FFF7E4FDC4F30720FFF7E0FDF0
:100A8000E0B2FFF7DDFD002504E0705DFFF7D8FD63
:100A9000681C85B2BD42F8DB01206B490860FFF796
:100AA000D1FFBDE8F0812DE9F04107460E4614461E
:100AB000F0B2C0F58075AC4200DC254612E02A4653
:100AC00031463846FFF7C7FFAC4200D10BE02F4458
:100AD0002E44601B84B2B4F5807F02DD4FF4807534
:100AE00000E02546EBE700BFBDE8F08110B5044605
:100AF000214659A01CF092FA2403FFF766FFFFF786
:100B0000A1FF0020504908602020FFF799FDC4F3A1
:100B10000740FFF795FDC4F30720FFF791FDE0B212
:100B2000FFF78EFD01204949C1F8B002FFF78AFFA7
:100B300010BD2DE9F05F81460F461646DFF820B163
:100B40004FEA1738C7F30B0ACAF58054A64200DCF7
:100B5000344644E04FEA08314FF480525846FFF7DC
:100B60004CFF002508E00AEB05001BF80000FF28F9
:100B700000D003E0681C85B2A542F4DB00BFA542AB
:100B800016DA4046FFF7B2FF002507E019F8050026
:100B900005EB0A010BF80100681C85B2A542F5DBE4
:100BA0004FEA08314FF480525846FFF77CFF04E0CB
:100BB000224639464846FFF776FFA64200D10FE0AD
:100BC00008F101084FF0000AA1442744301B86B207
:100BD000B6F5805F02DD4FF4805400E03446B9E79B
:100BE00000BFBDE8F09F10B5FFF7EFFEFFF72AFF4B
:100BF000002015490860C720FFF722FD0120134996
:100C0000C1F8B002FFF71EFF10BD10B500200E495D
:100C10000860B920FFF714FD01200C49C1F8B002AB
:100C2000032007F063FE10BD10B5002006490860E0
:100C3000AB20FFF705FD01200449C1F8B0020320F5
:100C400007F054FE10BD0000B082404200804042D8
:100C5000000402401C00002066653A25780D0A0059
:100C60002405002010B59AB004460121084608F07A
:100C7000F1FC0121082008F036FD0121480508F0AB
:100C8000E9FC02208DF8640000208DF86600042045
:100C9000189003208DF8650018A9AC4808F04EF9AB
:100CA00002221146A94808F0D4F9A94809F024FA0B
:100CB00015A809F002FB0020ADF85C00ADF8560065
:100CC0001694ADF854008DF85E0015A9A04809F0FF
:100CD000C0FA01219E4809F036FF10A809F072FC05
:100CE0006020ADF840000020ADF84C000120ADF8C8
:100CF00042000020129010A9954809F0C5FB082178
:100D0000934809F0DEFC0021914809F02BFB0122F9
:100D1000D1028F4809F06EFF8E4809F019F801A83A
:100D200009F0E1F818200590C005019040200490DA
:100D300000200C9003200D908748039000200E9017
:100D40004FF4805009908010079000200A9080484E
:100D50003C30029000200F904FF48050089000200B
:100D600006904FF480300B9001A97A4809F092F870
:100D70000021784809F0C8F81AB010BD70B50246D5
:100D80000B46002116E0002010E003FA00F404F402
:100D900000040CB1462400E0232401EB410500EBE4
:100DA000C5056D4E46F82540441CE0B21828ECDB22
:100DB0004C1CE1B29142E6DB70BD70B502460B46B9
:100DC000002117E0002011E053F82140844004F492
:100DD00000040CB1462400E0232401EB410500EBA4
:100DE000C5055D4E46F82540441CE0B21828EBDBF3
:100DF0004C1CE1B29142E5DB70BD10B54A2155486B
:100E000009F0A3F80121534809F07EF80121504868
:100E100009F0A8FA00BF51494E4809F0D2F800285D
:100E2000F9D04E494B4809F0E8F80021494809F04B
:100E30006BF80021464809F095FA10BD10B504463C
:100E40004FF47F412046FFF799FFFFF7D6FF10BD13
:100E500010B504464FF47F012046FFF78FFFFFF7E0
:100E6000CCFF10BD10B50446FF212046FFF786FFDA
:100E7000FFF7C3FF10BD70B50546002425B1012D55
:100E800023D0022D5FD141E000240BE0002040EA96
:100E900004214020FFF772FFFFF7AFFF0A2007F0A1
:100EA0006DFDA41CFE2CF1DBFE240BE0002040EACB
:100EB00004214020FFF762FFFFF79FFF0A2007F0A1
:100EC0005DFDA41E002CF1DC3DE000240BE00020C1
:100ED00040EA04414020FFF751FFFFF78EFF0A2050
:100EE00007F04CFDA41CFE2CF1DBFE240BE00020DF
:100EF00040EA04414020FFF741FFFFF77EFF0A2050
:100F000007F03CFDA41E002CF1DC1CE0002409E0ED
:100F100021464020FFF732FFFFF76FFF0A2007F05E
:100F20002DFDA41CFE2CF3DBFE2409E0214640200D
:100F3000FFF724FFFFF761FF0A2007F01FFDA41E43
:100F4000002CF3DC00BF00BF70BD000000000240B9
:100F5000000C00401060024024150020200000100A
:100F600000B589B00121022008F074FB01210220A4
:100F700008F0B9FB02208DF8200000208DF8220037
:100F80003020079000208DF8230003208DF82100E9
:100F900007A9654807F0D2FF02220421624808F041
:100FA00058F802220521604808F053F80020ADF8F7
:100FB0001800ADF812004FF6FF7005900020ADF854
:100FC00010008DF81A0004A9584809F042F901A848
:100FD00009F04DFD0F20ADF80C0001A9534809F0B0
:100FE0000FFD00231A460121504809F0A6FE4FF4D8
:100FF00000414E4809F076F901214C4809F0B2F958
:1010000009B000BD10B50024484809F06FF9A0F5FB
:10101000004004B24FF40041444809F063F920460F
:1010200010BD10B50024FFF7EDFF44B20CB900204D
:1010300010BD002C05DD3E48007820443C49087076
:1010400005E03C480078614208443A490870384855
:101050000078022809DB00203549087035490870FE
:10106000354800F0E0F90120E2E732480078022834
:1010700007DA2F48007801280DD12E480078012882
:1010800009D100202A4908702A4908702A4800F02E
:10109000CAF90220CCE70020CAE710B50220274990
:1010A0000870254800F0BFF910BD10B50120234994
:1010B0000870214800F0B7F910BD10B50024FFF703
:1010C000A1FF44B204B910BD002C05DD1C48007816
:1010D00020441B49087005E01A4800786142084422
:1010E0001849087016480078022807DB00201449C8
:1010F000087014490870FFF7D8FF12E01148007813
:10110000022807DA0E48007801280AD10D48007835
:10111000012806D100200A4908700A490870FFF723
:10112000BCFF00BFCFE70000000402400004004005
:101130001E0000201F0000207A0C0208050000207D
:10114000200000202100002070B505460E4642F226
:10115000107403E0601E84B204B905E031462846ED
:101160000AF01CFA0128F5D100BF70BD70B5044625
:101170000D46012157480AF019F957495548FFF71C
:10118000E3FF0022782153480AF028F953495148D7
:10119000FFF7DAFF21464F480AF0A4F94F49891EAC
:1011A0004C48FFF7D1FF29464A480AF09BF94B49C2
:1011B000891C4848FFF7C8FF012146480AF002F998
:1011C00070BD10B5044621460020FFF7CFFF10BDCB
:1011D00010B5044621464020FFF7C8FF10BD10B5EA
:1011E000044614B9A620FFF7ECFF012C02D1A7207A
:1011F000FFF7E7FF10BD10B504462CB9C820FFF774
:10120000E0FFA120FFF7DDFF012C05D1C020FFF793
:10121000D8FFA020FFF7D5FF10BD10B58D20FFF738
:10122000D0FF1420FFF7CDFFAF20FFF7CAFF10BD9E
:1012300010B58D20FFF7C5FF1020FFF7C2FFAE20CD
:10124000FFF7BFFF10BD00B587B00121022008F0F5
:1012500001FA0121480508F046FA05A807F0B6FE94
:10126000C020059002208DF8180001208DF81A008A
:1012700003208DF8190005A9194807F05FFE042224
:101280000621174807F0E5FE04220721144807F05D
:10129000E0FE01A80AF058F84FF48060ADF80E00A7
:1012A0000001ADF810000F4801904BF6FF70ADF84B
:1012B0000A000020ADF808007720ADF80C0001A965
:1012C000044809F0D4FF012102480AF04CF807B0A5
:1012D00000BD000000540040010003008200070030
:1012E0000004024040420F0010B588B004460121BE
:1012F000080408F009FA0020ADF81C00ADF816004B
:10130000601E06905320ADF8140000208DF81E00DA
:1013100005A9814808F09DFF684609F053F960204F
:10132000ADF800000020ADF80C000120ADF802007F
:10133000204604EBD071491002916946764809F0C5
:1013400056F80121744809F0FEFB0021724809F0AB
:1013500009F808B010BD1CB50121084608F07AF95B
:1013600002208DF8040000208DF80600082000906F
:1013700000208DF8070003208DF8050069466748B6
:1013800007F0DCFD03221146644807F062FE4FF4CB
:101390007A70FFF7A9FF0821604807F04DFE012091
:1013A0005F49087000204870142008721CBD014677
:1013B00009B900207047DFED5B0AB0EE600A00EE6D
:1013C000901AF8EE600A9FED581AC1EE201AB0EE9E
:1013D000610AFCEEC00A10EE900A80B2EAE710B58E
:1013E0002DED028B04469FED4F0AB0EE408A4A482D
:1013F000008800F0010018B90121474808F0B2FF49
:1014000000EE104AB8EE400ADFED470A80EE801A7F
:10141000B0EE418ABCEEC80A10EE100A3E49C8621E
:10142000BDEC028B10BD70B5054600213A4808F0AE
:1014300099FF3E480560002401E0601C84B23B48EF
:10144000006810F824003D28F7D13548848000203A
:101450003349C880012048700020488070BD10B515
:101460002F48407800284AD02D480078002846D0E0
:101470002B48C0882A498988884234DC284840881B
:10148000401E27494880084640884FF6FF71884231
:1014900040DB2349C988254A126812F82110244AE2
:1014A00032F81100FFF783FF1B49C8620846C06A83
:1014B00080B21B49097AC1F1640190FBF1F0164931
:1014C00088631748C0881949096801EB8000408883
:1014D000134948800846C088401CC88001210E4836
:1014E00008F040FF16E000210B4808F03BFF002009
:1014F0000B4948700821094807F09EFD0AE00021C9
:10150000054808F02FFF00200549487008210348CE
:1015100007F092FD10BD00000040014000000240B5
:101520004C16002000000000002474492400002014
:10153000FE0B02087FB505460C460121042008F089
:10154000D2F80020ADF80C00ADF806000295ADF819
:1015500004408DF80E0001A93E4808F07AFE0121F2
:101560003C4809F02BFB012211463A4809F012FBD6
:101570004FF4A06007F0ECFB1E208DF80000012066
:101580008DF8030002208DF801008DF802006846F6
:1015900007F0E3FB01212F4808F0E4FE7FBD10B502
:1015A00000242D4800681BF003FFFEF7BDFE4FF43A
:1015B0007A7190FBF1F201FB1204204610BD10B5C8
:1015C0000121244809F0FDFA012841D101212148D7
:1015D00009F008FB20480068401C1F4908600EF015
:1015E00050FB1E480078401CC0B21C4908700528FA
:1015F00004DB00F0A7F900201849087018480078AB
:10160000401CC0B2164908700A2804DBFFF755FDDC
:1016100000201349087013480088401C80B211490B
:1016200008800A2804DBFFF71AFF00200D49088014
:101630000D480088401C80B20B49088041F2883177
:10164000884205DB0120094908700020064908800E
:1016500010BD0000000800402C00002030000020D9
:101660003500002036000020320000203400002029
:101670002DE9F04104460E4617461D462C21204612
:101680001BF073FFA07820F0F0008030A070A660FF
:101690002846A1688847E17860F3C711E170E078D7
:1016A00067F38610E0702571BDE8F08100F10C034E
:1016B00043F821207047014688780009704770B5CB
:1016C00004462079A16888470546E07800F00700C5
:1016D000002802DD2088401C2080E078B5EBD01F78
:1016E00013D0E078C008401CE17860F3C501E170D8
:1016F000C1F3C20003280CDBE07865F3C710E0708B
:10170000E07820F03800E07003E0E07820F0380066
:10171000E070E07800F00700062876D2DFE800F0FD
:101720000326529DE7C6E078C0F38010E178B0EB65
:10173000D11F15D1A07820F0F000A070E06810B1A2
:101740002046E168884700202080A07820F00F0024
:10175000401CA070E07820F00700401CE07004E01E
:10176000A07820F0F0008030A070C5E0E078C0F3F1
:101770008010E178B0EBD11F11D0A07820F0F000FC
:101780001030A070206910B12046216988470020E0
:101790002080E07820F00700801CE07011E02088B5
:1017A00064280EDDA07820F0F0005030A070206A90
:1017B00010B12046216A8847E07820F00700401DDC
:1017C000E07099E0E078C0F38010E178B0EBD11FD1
:1017D0001CD1A07820F0F000A070E06810B1204685
:1017E000E1688847A078401CA17860F30301A170EC
:1017F000606910B120466169884700202080E07848
:1018000020F00700C01CE07026E070E02088062869
:1018100022DDA07800F00F0001280AD1A07820F086
:10182000F0003030A070A06990B12046A1698847CF
:101830000EE0A07800F00F00022809D1A07820F077
:10184000F0004030A070E06910B12046E16988479F
:10185000E07820F00700E0704EE0E078C0F3801000
:10186000E178B0EBD11F19D0A07820F0F000103053
:10187000A070206910B12046216988472088062879
:1018800007DA00202080E07820F00700801CE0705C
:101890000BE0E07820F00700E07006E020880628E2
:1018A00003DDE07820F00700E07025E0E078C0F389
:1018B0008010E178B0EBD11F0AD1A07820F0F000C1
:1018C0006030A070606A88B12046616A88470DE088
:1018D000A07820F0F0001030A070206910B12046F0
:1018E00021698847E07820F00700E07004E0E078A4
:1018F00020F00700E07000BF00BF70BD0146174830
:10190000026805E08A4202D14FF0FF307047926AC8
:10191000002AF7D111480068886210480160002051
:10192000F4E702460D4808E00168914202D18B6A53
:101930000360704701F1280000BF01680029F3D15E
:1019400000BFF6E710B50548046803E02046FFF73E
:10195000B6FEA46A002CF9D110BD000038000020AA
:1019600010B504460120424908704248FFF75BFD6C
:1019700010BD10B5044602203D4908703E48FFF7EF
:1019800052FD10BD10B504213C4807F039FB10BDD5
:101990001CB50121042007F05DFE00208DF8040035
:1019A0000420009001208DF8070003208DF8050029
:1019B0006946324807F0C2FA00231A46AFF23B01EB
:1019C0002F48FFF755FEAFF2550205212C48FFF7CF
:1019D0006DFEAFF2730203212948FFF767FE284826
:1019E000FFF78CFF1CBD10B50121244807F008FB50
:1019F00010BD10B50221214807F002FB10BD10B543
:101A0000044620A01BF00AFB2648FFF70CFD10BD82
:101A100010B5044624A01BF001FB10BD0121294A8A
:101A20001170704710B50446012011490870114823
:101A3000FFF7F9FC10BD10B5044623A01BF0EEFA29
:101A40001848FFF7F0FC10BD10B5044626A01BF0A7
:101A5000E5FA10BD02211B4A1170704710B504460B
:101A60000220034908700448FFF7DDFC10BD0000A8
:101A700004000020820C02089A0C020800080240B0
:101A8000B01600202D2D2D3E206B65793020707210
:101A900065737320646F776E21203C2D2D2D0D0A08
:101AA000000000007A0C02082A2A2A3E206B657981
:101AB0003020707265737320757021203C2A2A2AA9
:101AC0000D0A0000050000202D2D2D3E206B6579AC
:101AD0003120707265737320646F776E21203C2D06
:101AE0002D2D0D0A000000002A2A2A3E206B657960
:101AF0003120707265737320757021203C2A2A2A68
:101B00000D0A000038B50446F74890F82400C0B12B
:101B100014B10220009001E000200090F24A126807
:101B2000D17BF14A526810786B46012203F0C9F963
:101B300010B14FF0FF3038BD9DF80010EA484174F5
:101B400023E0E948807A10B94FF0FF30F3E724B181
:101B5000E548407C08B10020EDE714B10120009079
:101B600001E000200090E04A1268D17BDE4A526812
:101B700010786B46012203F0A4F910B14FF0FF304A
:101B8000D9E79DF80010D84841740020D3E738B554
:101B900000241FE0D4480068C07AA04204D0D24894
:101BA0000068407DA04200D112E0CF494968087822
:101BB0006B460122214603F0C3F810B14FF0FF300D
:101BC00038BD9DF800202146C8A01BF027FA00BFB1
:101BD000601CC4B2C44840680079A042DADC00202E
:101BE000EEE770B504460D46BF480068C07AA042D3
:101BF00004D0BD480068407DA04202D14FF0FF30C4
:101C000070BDB94840680079A04202DC4FF0FF3057
:101C1000F6E7B549496808782B460122214603F0CA
:101C20008FF8EDE738B50446AF4890F82300A0429E
:101C300001D1002038BD14B13020009001E0002017
:101C40000090A948807C20B19DF8000040F002007F
:101C50000090A54890F8220020B19DF8000040F0C7
:101C600080000090A04A1268117D9F4A5268107847
:101C70006B46012203F025F910B14FF0FF30D9E790
:101C8000994880F823400020D4E738B5044604F092
:101C9000700010B10120009005E014B10020009008
:101CA00001E040200090904A1268917C8E4A526870
:101CB00010786B46012203F004F920B100218A4814
:101CC0008172481E38BD9DF8000020F04001864812
:101CD00001730020009004F0400020B99DF800003E
:101CE00040F00400009004F0200020B99DF80000AE
:101CF00040F00200009004F0100020B99DF80000B0
:101D000040F00100009004F0080020B99DF80000A8
:101D100040F038000090744A1268D17C724A5268D0
:101D200010786B46012203F0CCF820B100216E48F8
:101D30008172481EC6E724B1082C02D00020FFF7AC
:101D400071FF6948847200210175322006F016FE89
:101D50000020B7E738B504466348807CA04201D133
:101D6000002038BD002C46D05F4A126811795E4AC7
:101D7000526810786B46012202F0E2FF10B14FF07A
:101D8000FF30EEE79DF8000020F020000090564A5A
:101D900012681179544A526810786B46012203F098
:101DA00090F810B14FF0FF30DBE7032006F0E6FDBE
:101DB000022000904C4890F8220020B19DF80000CD
:101DC00040F080000090484890F8230020B19DF832
:101DD000000040F030000090434A1268117D424AF2
:101DE000526810786B46012203F06BF8002851D03E
:101DF0004FF0FF30B5E73C4A126811793A4A526811
:101E000010786B46012202F09BFF10B14FF0FF30BB
:101E1000A7E73548807A00F0010028B19DF800005E
:101E200040F02000009004E09DF8000020F0200029
:101E300000902D4A126811792B4A526810786B462F
:101E4000012203F03EF810B14FF0FF3089E7032084
:101E500006F094FD244890F8220010B180200090F4
:101E600001E000200090204890F8230020B19DF868
:101E7000000040F0300000901B4A1268117D1A4AA1
:101E8000526810786B46012203F01BF810B14FF036
:101E9000FF3066E714488474002062E708B51248F2
:101EA000807A10B94FF0FF3008BD002000900E4A34
:101EB0001268D17B0C4A526810786B46012203F0FD
:101EC00000F810B14FF0FF30EEE7074A1268517981
:101ED000054A526810786B46012202F0F2FF68B1A1
:101EE0004FF0FF30E0E700003C000020252335786C
:101EF0003A20252335780D0A00000000F84A1268C0
:101F00001179F74A526810786B46012202F0D9FF26
:101F100010B14FF0FF30C7E7F14890F824000028D7
:101F200053D00C200090EE4A12681179EC4A5268A6
:101F300010786B46012202F0C4FF10B14FF0FF3061
:101F4000B2E7052006F01AFDC0200090E448807A30
:101F500000F0010020B19DF8000040F0200000904A
:101F6000DF4A12681179DE4A526810786B46012206
:101F700002F0A7FF10B14FF0FF3095E7D848407C42
:101F800010B10220009001E000200090D44A1268B5
:101F9000D17BD34A526810786B46012202F091FF40
:101FA00010B14FF0FF307FE700200090CC4A12685C
:101FB0005179CB4A526810786B46012202F081FFBA
:101FC000002855D04FF0FF306EE704200090C44A3F
:101FD00012681179C24A526810786B46012202F0E9
:101FE00070FF10B14FF0FF305EE7BD48807C20B934
:101FF000BB48807A00F0010010B94020009001E059
:1020000060200090B64A12681179B54A526810787B
:102010006B46012202F055FF10B14FF0FF3043E74D
:10202000052006F0ABFCAE48407C10B101200090CA
:1020300001E000200090AA4A1268D17BA84A5268A9
:1020400010786B46012202F03CFF10B14FF0FF30D8
:102050002AE7A34A12685179A14A52681078A04B26
:102060001033012202F02DFF10B14FF0FF301BE7BB
:10207000002019E770B50446002624F001049848B2
:1020800090F8240008B1002070BD9548807A10B9FE
:102090004FF0FF30F8E79248057C807A2040904965
:1020A00008740846007CA04202D04FF0FF3600E0E2
:1020B000002614B98A48007D18B10120FFF722FDDF
:1020C00002E00020FFF71EFD3CB1FFF7E7FE20B164
:1020D000834805744FF0FF30D6E73046D4E738B573
:1020E00004467F48807A10B94FF0FF3038BDBC2CD1
:1020F00002DB0120009015E0622C02DB0220009040
:1021000010E02A2C02DB032000900BE0142C02DBF1
:102110000420009006E00A2C02DB0520009001E07C
:10212000062000906E48C07A9DF80010884201D1C8
:102130000020DBE76A4A12689178694A5268107891
:102140006B46012202F0BDFE10B14FF0FF30CDE72B
:102150009DF800106248C1720020C7E738B50446F8
:10216000282C02DD4FF0FF3038BDDCB90020FFF72E
:1021700059FD00208DF8000007208DF80100584A15
:102180001268917C564A526810786B46022202F01F
:1021900098FE10B14FF0FF30E6E70021504801757E
:1021A0000020E1E70120FFF73DFD20208DF8000031
:1021B000012C06D100208DF801000520FFF78FFFCC
:1021C00017E0052C06DC01208DF801000520FFF743
:1021D00086FF0EE0142C06DC02208DF801000A2098
:1021E000FFF77DFF05E003208DF801001420FFF7C5
:1021F00076FF9DF80100072101EB8010C0B28DF839
:102200000100374A1268917C354A526810786B4653
:10221000022202F056FE10B14FF0FF30A4E7082171
:102220002F48817200210173012101750020FFF701
:1022300021FF002098E738B504462948807A10B974
:102240004FF0FF3038BD264890F8240010B14FF011
:10225000FF30F7E72248007D50B134B1282C04DC70
:10226000E0B2FFF77BFF0020ECE70020FFF776FFEE
:10227000042C01DA042404E0B4F57A7F01DD4FF484
:102280007A744FF47A7090FBF4F0401EC0B2009064
:10229000134A12685178124A526810786B4601222C
:1022A00002F00FFE10B14FF0FF30CBE79DF80000B9
:1022B000401C4FF47A7191FBF0F081B20848C18163
:1022C0000146C9894810FFF70AFF0020BAE738B570
:1022D00004460348807A28B94FF0FF3038BD00002B
:1022E0003C000020022C06D0042C07D0082C08D07B
:1022F000102C0CD108E0002000900BE0082000908A
:1023000008E01020009005E01820009002E04FF057
:10231000FF30E3E700BFF748407A9DF80010B0EBCC
:10232000E10F01D10020D9E7F24A1268D179F14AD0
:10233000526810786B46012202F0C3FD10B14FF0D5
:10234000FF30CBE79DF80000C110EA484172002041
:10235000C4E738B50446E748807A10B94FF0FF303B
:1023600038BDFA2C09D0B4F5FA7F09D0B4F57A7FDC
:1023700009D0B4F5FA6F0CD108E0002000900BE012
:102380000820009008E01020009005E01820009040
:1023900002E04FF0FF30E3E700BFD648007A9DF837
:1023A0000010B0EBE10F01D10020D9E7D14A12684B
:1023B0009179D04A526810786B46012202F081FD73
:1023C00010B14FF0FF30CBE79DF80000C010C949B5
:1023D00008720020C4E71CB580208DF80000C54AB3
:1023E0001268917CC34A526810786B46012202F051
:1023F00068FD10B14FF0FF301CBD642006F0BEFA3E
:1024000000208DF80000BB4A1268917CB94A5268DE
:1024100010786B46012202F054FD10B14FF0FF30EE
:10242000EAE7B44A1268917DB24A526810786B4666
:10243000062202F085FC10B14FF0FF30DCE79DF87A
:102440000500C007400F9DF8031001F0010140EAAC
:1024500041009DF8011001F0010140EA010494B12E
:10246000012C03D10121A348C17431E0022C03D116
:102470000021A048C1742BE021469FA01AF0CEFD98
:102480004FF0FF30B8E79B4A1268D178994A5268FA
:1024900010786B46012202F053FC10B14FF0FF3070
:1024A000AAE79DF8000000F00F042CB99C481AF030
:1024B000B5FD4FF0FF309FE7042C06D199A01AF02C
:1024C000ADFD01218B48C17402E000218948C1742F
:1024D000FF2188488172FF2086490872FF218548C4
:1024E0004172C1724FF6FF71C181FF210174817485
:1024F0000121017380F82210002180F8231041751A
:1025000001751630016041608160163880F8241032
:1025100080F82510C1844FF4FA60FFF71AFF10B15C
:102520004FF0FF3068E70220FFF7D1FE10B14FF007
:10253000FF3061E72A20FFF7D2FD10B14FF0FF30E6
:102540005AE73220FFF777FE10B14FF0FF3053E724
:102550000020FFF78FFD10B14FF0FF304CE7002057
:10256000FFF7F8FB10B14FF0FF3045E70020FFF711
:102570008CFB002040E770477CB504460D465D4863
:10258000807A00F0700010B94FF0FF307CBD594ADE
:102590001268117B574A526810786B46062202F087
:1025A000CFFB10B14FF0FF30F0E79DF801009DF830
:1025B000001040EA012000B220809DF803009DF841
:1025C000021040EA012000B260809DF805009DF8ED
:1025D000041040EA012000B2A08015B12846FFF7A0
:1025E000CAFF0020D2E77CB504460D464148807AF8
:1025F00000F0080010B94FF0FF307CBD3D4A126872
:10260000517B3C4A526810786B46062202F098FBD8
:1026100010B14FF0FF30F0E79DF801009DF8001079
:1026200040EA012000B220809DF803009DF80210CE
:1026300040EA012000B260809DF805009DF804107A
:1026400040EA012000B2A08015B12846FFF793FFB1
:102650000020D2E7F8B506460C462648807A10B925
:102660004FF0FF30F8BD234A1268917B214A52682F
:1026700010786B46022202F063FB10B14FF0FF307E
:10268000F0E79DF801009DF8001040EA012005B236
:1026900014B12046FFF76FFF16484068B0F90800F4
:1026A00000EE100AF8EEC00A00EE105AB8EEC00AAA
:1026B00070EE600A0F484068C08800EE100AB8EE5D
:1026C000400A80EE801A9FED1F0A31EE000ADFED0E
:1026D0001E0A20EE200ABDEEC00A86ED000A002088
:1026E000C0E710B588B004461CB94FF0FF3008B001
:1026F00010BD2BE03C000020556E737570706F723A
:1027000074656420736F6674776172652070726F90
:1027100064756374207265762025642E0A000000BB
:10272000041A040848616C662073656E73697469E5
:1027300076697479207061727420666F756E642E8C
:102740000A00000000000C4200008047206830B9F9
:10275000606820B9A06810B9002008B010BDF94920
:102760004968087806AB0322114602F0E9FA10B175
:102770004FF0FF30F1E79DF81800082101EB201021
:1027800000F00F00ADF800009DF8190001EB2010DB
:1027900000F00F00ADF802009DF81A0001EB2010C8
:1027A00000F00F00ADF8040020684100BDF9000002
:1027B000403091FBF0F000B2ADF8100060684100CD
:1027C000BDF90200403091FBF0F000B2ADF812000C
:1027D000A0684100BDF90400403091FBF0F000B268
:1027E000ADF81400D7494968087806AB06221146AF
:1027F00002F0A6FA10B14FF0FF30AEE79DF81900D5
:102800009DF8181040EA012000B2ADF808009DF8CC
:102810001B009DF81A1040EA012000B2ADF80A0032
:102820009DF81D009DF81C1040EA012000B2ADF893
:102830000C00BDF81000BDF80810084400B2ADF857
:102840001000BDF81200BDF80A10084400B2ADF83F
:102850001200BDF81400BDF80C10084400B2ADF829
:102860001400BDF81000000A8DF81800BDF8100023
:10287000C0B28DF81900BDF81200000A8DF81A00D8
:10288000BDF81200C0B28DF81B00BDF81400000A9C
:102890008DF81C00BDF81400C0B28DF81D00A949C8
:1028A0004968087806AB0622114602F00AFB10B10F
:1028B0004FF0FF3051E700204FE70146A148007A72
:1028C00030B1012807D0022809D003280FD10AE02F
:1028D000FA2008800EE04FF4FA7008800AE04FF406
:1028E0007A70088006E04FF4FA60088002E0002069
:1028F000088000BF00BF0020704701469148407A21
:1029000030B1012807D0022808D003280CD108E0F4
:10291000022008700BE00420087008E0082008700E
:1029200005E01020087002E04FF0FF30704700BF54
:102930008448C07C18B108784006000E087000205A
:10294000F4E701467F48C07A082817D2DFE800F094
:102950001704070A0D101318BC20088013E062202A
:10296000088010E02A2008800DE0142008800AE08A
:102970000A20088007E00520088004E000BF00BFAF
:102980000020088000BF00BF0020704701466D484E
:1029900090F8240010B14FF0FF3070476948C089AB
:1029A00008800020F9E7014600200880401E70479B
:1029B00001464FF0FF30704701466248007A30B15F
:1029C000012809D002280CD0032814D10EE09FED75
:1029D0005E0A81ED000A11E09FED5C0A81ED000ABC
:1029E0000CE09FED5B0A81ED000A07E09FED590ABC
:1029F00081ED000A02E04FF0FF30704700BF002079
:102A0000FBE701464F48407A30B1012808D0022840
:102A10000AD0032810D10BE04FF4804008800EE06C
:102A200041F69C7008800AE04FF48050088006E070
:102A30004FF40060088002E04FF0FF30704700BFA5
:102A40004048C07C10B10888401008800020F5E79D
:102A500001463C48007C0870002070470146394818
:102A6000807A10B10120087001E000200870002079
:102A7000704738B504463348807A10B94FF0FF30BC
:102A800038BD304A1268117C2E4A526810786B4665
:102A9000022202F055F910B14FF0FF30F0E79DF837
:102AA00001009DF8001040EA012000B220800020C3
:102AB000E6E72DE9FE4F0746884692461D46DDF8BB
:102AC00030B0002600241F4890F8240010B1601E8A
:102AD000BDE8FE8F002028701A48807A10B94FF0A8
:102AE000FF30F5E71748007C10B94FF0FF30EFE7F3
:102AF0001448007C00F0400008B1B01CC6B2114878
:102B0000007C00F0200008B1B01CC6B20D48007C6B
:102B100000F0100008B1B01CC6B20A48007C00F0FA
:102B2000080008B1B01DC6B2064A1268917A054A7B
:102B3000526810786B46022202F002F960B14FF041
:102B4000FF30C5E73C000020000003430000834243
:102B500033330342333383419DF801009DF8001065
:102B600040EA0129B14501DA0020B1E7FA4840689E
:102B70004088B9EB600F17DDF74A1268517CF64ABE
:102B8000526810786B46012202F0DAF810B14FF06B
:102B9000FF309DE79DF8000000F0100020B1FFF726
:102BA0007DF96FF0010093E75046FFF7E4FCEA4A35
:102BB0001268D17AE84A526810786B46324602F0C1
:102BC000BFF810B14FF0FF3082E799FBF6F0401EDE
:102BD0008BF8000000202870B4422AD0DE48007C28
:102BE00000F0080028B3601C1DF800001DF8041058
:102BF00040EA012000B2A8F80000E01C1DF8001017
:102C0000A01C1DF8000041EA002000B2A8F8020054
:102C1000601D1DF80010201D1DF8000041EA002075
:102C200000B2A8F80400287840F008002870A01D21
:102C300084B2B44213D0C848007C00F0400070B1A8
:102C4000601C1DF800001DF8041040EA012000B2CD
:102C50003880287840F040002870A01C84B2B4422C
:102C600013D0BD48007C00F0200070B1601C1DF83E
:102C700000001DF8041040EA012000B27880287896
:102C800040F020002870A01C84B2B44213D0B24897
:102C9000007C00F0100070B1601C1DF800001DF8F1
:102CA000041040EA012000B2B880287840F01000FB
:102CB0002870A01C84B200200AE7F8B504460F462D
:102CC0001646A54890F8240010B94FF0FF30F8BD23
:102CD000A148807A10B94FF0FF30F8E79E4A126899
:102CE000917A9D4A526810786B46022202F028F8C9
:102CF00010B14FF0FF30EAE79DF801009DF8001099
:102D000040EA0125A54203DA00203070401EDEE7CC
:102D1000914840684088B5EB600F17DD8E4A126815
:102D2000517C8D4A526810786B46012202F008F8F7
:102D300010B14FF0FF30CAE79DF8000000F010001E
:102D400020B1FFF7ABF86FF00100C0E7E2B2824BB1
:102D50001B68D97A804B5B6818783B4601F0F0FF1E
:102D600010B14FF0FF30B2E795FBF4F0401E307029
:102D70000020ACE70146784880F822100020704718
:102D80007CB5054674494968087801AB04220D21D9
:102D900001F0D6FF08B107207CBD9DF80700C0F305
:102DA00001109DF8041001F0E00140EAE1008DF807
:102DB00000009DF80700C0F381009DF8051001F0A8
:102DC000E00140EAE1008DF801009DF8070000F005
:102DD00003009DF8061001F0E00140EAE1008DF8E3
:102DE0000200002427E01DF8040030B99FED5B0AC3
:102DF00005EB840080ED000A1BE09FED590A05EB0E
:102E0000840080ED000A0BE005EB840090ED000AE1
:102E1000DFED540A20EE200A05EB840080ED000A65
:102E20001DF80400401EC0B20DF804000028EBD1CC
:102E300000BF601CC4B2032CD5DB0020ACE7F0B5AA
:102E40002DED028B83B006460F4600256846FFF73E
:102E500097FF002447E056F8241057F82420881ADA
:102E6000002801DB014600E0414200EE101AB8EEF6
:102E7000C00ADFED3D0A80EE208A684600EB840040
:102E800090ED000AB5EEC00AF1EE10FA18D06846CF
:102E900000EB8400D0ED000A88EE200AF7EE000A6D
:102EA00070EE608AB0EEE80A3048D0ED090AB4EE60
:102EB000E00AF1EE10FA15DD0120A040054311E013
:102EC0002A4890ED070AB4EEC80AF1EE10FA06DCC3
:102ED00090ED080AB4EEC80AF1EE10FA02D2012011
:102EE000A0400543641C032CB5DB284603B0BDECB1
:102EF000028BF0BDF0B52DED048B81B006460F4678
:102F000000251549496808786B4603220D2101F018
:102F100017FF20B1072001B0BDEC048BF0BD9DF878
:102F2000000000F01F008DF800009DF8010000F087
:102F30001F008DF801009DF8020000F01F008DF8C1
:102F40000200002461E056F8241057F82420881A63
:102F500000280DDB01460CE03C00002000000000D2
:102F60007B14AE3E1D5A843F00008047E00D0208EE
:102F7000414200EE101AB8EEC00A5FED050A80EE7D
:102F8000208A1DF8040068B3FE4890ED000AB8EEF0
:102F9000400ADFEDFD0A80EE801AF0EE418A05E07E
:102FA0009FEDFA0A28EE800AF0EE408A1DF8040030
:102FB000401EC0B20DF804000028F1D188EE280AA6
:102FC000F7EE000A30EE609AB0EEC90AED48D0ED97
:102FD000060AB4EEE00AF1EE10FA15DD0120A04079
:102FE000054311E0E74890ED040AB4EEC80AF1EE9B
:102FF00010FA06DC90ED050AB4EEC80AF1EE10FAFC
:1030000002D20120A0400543641C032C9BDB284610
:1030100081E72DE9F04F87B005460C469146012027
:103020008DF8100000208DF81100D94A1268917CAB
:10303000D74A5268107804AB022201F042FF20B157
:103040004FF0FF3007B0BDE8F08FC82005F096FCC8
:1030500000208DF81000CE4A1268D17BCC4A52680D
:10306000107804AB012201F02CFF10B14FF0FF30BB
:10307000E8E7C74A12685179C54A5268107804AB2C
:10308000012201F01EFF10B14FF0FF30DAE7C04A15
:103090001268917CBE4A5268107804AB012201F09C
:1030A00010FF10B14FF0FF30CCE7B94A1268D17D64
:1030B000B74A5268107804AB012201F002FF10B148
:1030C0004FF0FF30BEE7B24A12681179B04A526839
:1030D000107804AB012201F0F4FE10B14FF0FF3084
:1030E000B0E70C208DF81000A94A12681179A84A9F
:1030F0005268107804AB012201F0E3FE10B14FF0EA
:10310000FF309FE70F2005F039FCA148806A407A24
:103110008DF810009E4A126891789D4A5268107886
:1031200004AB012201F0CDFE10B14FF0FF3089E772
:103130009748806A007A8DF81000954A1268517895
:10314000934A5268107804AB012201F0BAFE10B124
:103150004FF0FF3076E7B9F1000F07D08C48806A56
:10316000807A40F0E0008DF8100004E08848806A22
:10317000807A8DF81000864A12689179844A5268E4
:10318000107804AB012201F09CFE10B14FF0FF302B
:1031900058E7B9F1000F07D07D48806AC07A40F047
:1031A000E0008DF8100003E07648C07A8DF810003A
:1031B000774A1268D179764A5268107804AB0122B6
:1031C00001F07FFE10B14FF0FF303BE7B9F1000F87
:1031D00002D0C82005F0D2FB40208DF810006C4AC8
:1031E000126811796A4A5268107804AB012201F022
:1031F00068FE10B14FF0FF3024E778208DF8100002
:10320000634A12685179624A5268107804AB01220D
:1032100001F057FE10B14FF0FF3013E7594988898C
:1032200005F0ACFB00208DF81000594A1268517966
:10323000574A5268107804AB012201F042FE10B1E7
:103240004FF0FF30FEE6524A1268917A504A5268B7
:10325000107804AB022201F073FD10B14FF0FF3083
:10326000F0E69DF811009DF8101040EA012B0C20AB
:103270009BFBF0F0C6B20020A86068602860A060E8
:1032800060602060824665E0414A1268D17A404A17
:103290005268107804AB0C2201F052FD10B14FF0CF
:1032A000FF30CFE69DF811009DF8101040EA012094
:1032B00000B2ADF808009DF813009DF8121040EA26
:1032C000012000B2ADF80A009DF815009DF8141019
:1032D00040EA012000B2ADF80C00BDF908102068EA
:1032E00008442060BDF90A10606808446060BDF9B8
:1032F0000C10A0680844A0609DF817009DF81610F7
:1033000040EA012000B2ADF800009DF819009DF8D8
:10331000181040EA012000B2ADF802009DF81B0031
:103320009DF81A1040EA012000B2ADF80400BDF982
:103330000010286808442860BDF902106868084435
:103340006860BDF90410A8680844A8600AF101008B
:1033500000F0FF0AB24597DB0A48D0F800C02868A1
:10336000C117090441EA10410704624600233846A8
:1033700019F019FE32460023CDE9020119F013FEBF
:10338000286007E0E00D020800B04C4554E3853F9B
:103390003C000020F848D0F800C06868C117090454
:1033A00041EA1041070462460023384619F0FBFD4C
:1033B00032460023CDE9020119F0F5FD6860EE48C0
:1033C000D0F800C0A868C117090441EA10410704F9
:1033D00062460023384619F0E6FD32460023CDE967
:1033E000020119F0E0FDA860E348D0F804C02168AC
:1033F000C817000440EA11480F046246002338460B
:10340000414619F0D0FD32460023CDE9020119F002
:10341000CAFD2060D848D0F804C06068C11709040C
:1034200041EA1041070462460023384619F0BBFD0B
:1034300032460023CDE9020119F0B5FD6060CE48A7
:10344000D0F804C0A068C117090441EA104107047C
:1034500062460023384619F0A6FD32460023CDE926
:10346000020119F0A0FDA060A068002804DDA0689A
:10347000A0F58030A06003E0A06800F58030A06077
:103480000020DFE538B50446BC4890F82400A0428F
:1034900001D1002038BD24B3B84890F8250010B9F8
:1034A0004FF0FF30F6E70020FEF72CFB0020FEF780
:1034B00051FCB249C88CFEF7BEFE00200090AF4917
:1034C000496808786B460122232101F0FAFC0121AA
:1034D000AA4880F824100120FEF714FBFEF7DEFC5A
:1034E00013E00020FEF70EFBA448007C0090A349E7
:1034F000496808786B460122232101F0E2FC002193
:103500009E4880F82410FEF7C9FC0020C2E72DE990
:10351000F04F8DB083460F4602200C90974890F8EC
:10352000240020B10020FFF7ADFF012600E00026B7
:1035300003A8FFF7C2F905A8FFF7DFF901A8FFF715
:1035400000FA02A8FFF722FA8C4890F80AA004A813
:10355000FFF77EFA002407E0002239465846FFF7BD
:1035600058FD00B902E0641C022CF5DB00BF022C00
:1035700001D1002528E0002407E0012206A909A8BE
:10358000FFF747FD00B902E0641C022CF5DB00BF29
:10359000022C01D1002517E006A93846FFF74FFCA1
:1035A00000F0FF0809A95846FFF7A4FC00F0FF0946
:1035B0000025B9F1000F01D145F00105B8F1000F68
:1035C00001D145F0020500BFFF206C490872FF21C0
:1035D0006A484172C1724FF6FF71C181FF21817249
:1035E000017401210173BDF80C00FEF7B2FE9DF8D5
:1035F0001400FEF76CFEBDF80400FEF770FDBDF888
:103600000800FEF718FE5046FEF73FFB9DF810003D
:10361000FEF730FD16B10120FFF734FF28460DB04C
:10362000BDE8F08FF8B504460D46164616B94FF0C2
:10363000FF30F8BD5148807A10B94FF0FF30F8E7FD
:1036400020128DF80000E0B28DF801009DF8010015
:1036500028444A4949684989884202DD4FF0FF30D1
:10366000E7E7464A1268117E444A526810786B4672
:10367000022201F026FC10B14FF0FF30D9E7EAB288
:103680003E4B1B68597D3D4B5B681878334601F013
:1036900018FC10B14FF0FF30CBE70020C9E7F8B5B8
:1036A00004460D46164616B94FF0FF30F8BD3348B4
:1036B000807A10B94FF0FF30F8E720128DF8000043
:1036C000E0B28DF801009DF8010028442B494968BB
:1036D0004989884202DD4FF0FF30E7E7274A126848
:1036E000117E264A526810786B46022201F0E9FBEF
:1036F00010B14FF0FF30D9E7EAB2204B1B68597D7B
:103700001E4B5B681878334601F01AFB10B14FF07E
:10371000FF30CBE70020C9E72DE9F04385B005462F
:103720000E4690469946154890F8250020B14FF076
:10373000FF3005B0BDE8F08316B94FF0FF30F8E771
:10374000002428E0281B102801DD102000E0281BA1
:1037500087B2321939462046FFF764FF10B14FF0A7
:10376000FF30E6E701AA39462046FFF798FF38B157
:103770004FF0FF30DDE70000E00D02083C000020C4
:1037800030193A4601A919F031FE10B16FF001006D
:10379000CFE7E01984B2AC42D4DB4FEA28208DF8A1
:1037A000000008F0FF008DF80100F74A1268917ED2
:1037B000F54A526810786B46022201F082FB10B184
:1037C0004FF0FF30B5E70121EF4880F82510A0F851
:1037D00026900020ADE70146EB4890F824000870E1
:1037E000002070474FF0FF30704702464FF0FF3027
:1037F000704701464FF0FF307047F8B505460F4659
:103800001446002C70D0B5F5FF5F01DDFF2605E002
:10381000202D01DA012601E0C5F3471607B901277B
:10382000282C02DD4FF0FF30F8BDD748407D28BB83
:10383000D54890F8240038B10020FFF723FE01217D
:10384000D14880F8201003E00021CF4880F82010F4
:10385000CD481630FFF731F8CB481830FFF74DF858
:10386000C9481A30FFF76DF8C7481C30FFF78EF8CB
:10387000C548817A81771F30FFF7EAF80020FEF70C
:1038800041F90020FEF76AFC00208DF80000BE4AD6
:1038900012689178BC4A526810786B46012201F098
:1038A00010FB10B14FF0FF30BEE740208DF8000054
:1038B000B54A1268D17BB44A526810786B4601222F
:1038C00001F0FFFA00B165E08DF800608DF801703D
:1038D000AD4A1268117AAC4A526810786B460222DF
:1038E00001F0EFFA08B155E047E0052005F046F891
:1038F000A548407A072101EBC000C0B28DF8000056
:10390000A14A1268D179A04A526810786B46012208
:1039100001F0D7FA00B13DE020208DF80000012C25
:1039200003D100208DF801000EE0052C03DC0120FE
:103930008DF8010008E0142C03DC02208DF8010052
:1039400002E003208DF801009DF80100072101EB42
:103950008010C0B28DF801008B4A1268917C8A4AAF
:10396000526810786B46022201F0ABFA00B111E008
:10397000012185484175002056E7834A163200210F
:1039800003E0505C00B105E0491C0C29F9D34FF06D
:10399000FF3049E7FF207C490872FF217A484172D5
:1039A000C1724FF6FF71C181FF2181720174012143
:1039B00001730146887FFEF768F97349C88AFEF7EC
:1039C000C8FC7149087EFEF782FC6F49488BFEF700
:1039D00086FB6D49888BFEF72EFC6B49C87FFEF78E
:1039E00049FB694890F8200010B10120FFF74AFD1B
:1039F000002165484175002016E710B588B002A97E
:103A000005A8FFF784FD0446032C41D101A8FEF769
:103A1000D3FF9DED050AB8EEC00ADDED010A20EEE8
:103A2000200ABDEEC00A8DED050A9DED060AB8EE2E
:103A3000C00ADDED010A20EE200ABDEEC00A8DEDC0
:103A4000060A9DED070AB8EEC00ADDED010A20EE78
:103A5000200ABDEEC00A8DED070A05A800F07DFA28
:103A60006846FEF7CEFFBDF800100298484302906A
:103A7000BDF80010039848430390BDF80010049867
:103A80004843049002A800F0FBFA002008B010BDE3
:103A90000120FBE7014691F90020002A01DD00200A
:103AA0001EE091F90020002A01DA042018E091F9C3
:103AB0000120002A01DD012012E091F90120002AF5
:103AC00001DA05200CE091F90220002A01DD022034
:103AD00006E091F90220002A01DA062000E0072022
:103AE000704710B504462046FFF7D4FF0346E01C9C
:103AF000FFF7D0FF43EAC00083B2A01DFFF7CAFF63
:103B000043EA801083B2184610BD70B5002401F05E
:103B100013FA1EA019F082FAFEF75DFC00286BD1A3
:103B20007820FEF7B2F8C4B21AA019F077FA0CB1F7
:103B3000012070BD7820FEF79DFAC4B216A019F0DE
:103B40006DFA0CB10220F4E7C820FEF774FBC4B292
:103B500012A019F063FA0CB10320EAE700F062F951
:103B6000C4B20FA019F05AFA0CB10420E1E70D48D5
:103B7000FFF7B7FF054600F05FF9C4B20AA019F0DD
:103B80004DFA9CB10520D4E73C0000206969630D23
:103B90000A000000310D0A00320D0A00330D0A0040
:103BA000340D0A0068000020350D0A0040F2731041
:103BB00000F093FDC4B293A019F030FA0CB10620C6
:103BC000B7E7C82000F0F2FAC4B28FA019F026FAC5
:103BD0000CB10720ADE700248CA019F01FFA0CB13E
:103BE0000820A6E70120FFF74DFCC4B288A019F019
:103BF00015FA0CB109209CE700209AE770B52DED6D
:103C00000C8B8EB004460D461646B7EE000AF0EE59
:103C1000409A9FED800AB0EE408A9FED7E0AF0EE5A
:103C2000408A9FED7C0AB0EE409A07A808A90DAB28
:103C300003AACDE9001009A90BA800F0ADFE20B140
:103C400001200EB0BDEC0C8B70BDBDF8200000F45F
:103C5000807000287ED09DED030AB8EEC00ADFED2B
:103C60006E0A80EE201AF0EE419A9DED040AB8EE3D
:103C7000C00ADFED690A80EE201AB0EE418A9DEDA0
:103C8000050AB8EEC00ADFED640A80EE201AF0EEF5
:103C9000418A9DED060AB8EEC00ADFED5F0A80EEAC
:103CA000201AB0EE419AB8EE000A28EE000A20EE83
:103CB000090AF0EE000A69EEA00A00EEA80A10EE6A
:103CC000101A08461CF01CFF41EC1C0BB0EE4C0A0D
:103CD000F0EE6C0A1BF0CCF8B0EE40BAF0EE60BA31
:103CE0009FED4E0B53EC102B51EC1B0B1CF012FCF8
:103CF00041EC1A0B1CF0D0F82060B8EE000A28EE58
:103D0000000A20EE080AF0EE000A68EEA00A00EEB3
:103D1000E80AF7EE000A30EE200A10EE101A084604
:103D20001CF0EEFE41EC1C0BB0EE000A28EE800AFF
:103D300020EE090AF0EE000A69EEA00A00EE880AF9
:103D400010EE101A08461CF0DBFE41EC1D0BB0EE25
:103D50004C1A00E052E0F0EE6C1AB0EE4D0AF0EEB4
:103D60006D0A1BF0A1FBB0EE40BAF0EE60BA9FED19
:103D70002B0B53EC102B51EC1B0B1CF0CBFB41EC31
:103D80001A0B1CF089F8286029EEA90A08EE080A27
:103D900008EEE80A09EE490A10EE101A08461CF06F
:103DA000AFFE41EC1C0B28EE280A09EE890AF0EE62
:103DB000000A20EE200A10EE101A08461CF0A0FEA1
:103DC00041EC1D0BB0EE4C1AF0EE6C1AB0EE4D0A41
:103DD000F0EE6D0A1BF068FBB0EE40BAF0EE60BA90
:103DE0009FED0E0B53EC102B51EC1B0B1CF092FBB8
:103DF00041EC1A0B1CF050F8306001E0022020E783
:103E000000201EE7360D0A00370D0A00380D0A00A3
:103E1000390D0A00000000000000804E66666666EC
:103E200066A64C4010B5C8234FF48062F74940F6AF
:103E3000F630FFF771FC10BD10B586B00446F4A053
:103E400000680390F3A000680290F3A0006801905E
:103E5000F2A00068009004F0030003A9085C8DF84C
:103E6000140003A8C4F3C101405C8DF8150003A839
:103E7000C4F38111405C8DF8160004F0030002A920
:103E8000085C8DF8100002A8C4F3C101405C8DF8F5
:103E9000110002A8C4F38111405C8DF8120005AA3C
:103EA000032140F22640FFF7BDFB18B14FF0FF3071
:103EB00006B010BD04AA032140F22A40FFF7B2FB6E
:103EC00010B14FF0FF30F3E701980590009804908F
:103ED00004F0040058B19DF8140040F001008DF882
:103EE00014009DF8100040F001008DF8100004F05F
:103EF000200058B19DF8150040F001008DF8150024
:103F00009DF8110040F001008DF8110004F480705C
:103F100058B19DF8160040F001008DF816009DF88C
:103F2000120040F001008DF8120005AA03214FF4A1
:103F30008860FFF777FB10B14FF0FF30B8E704AAB5
:103F4000032140F23140FFF76DFB10B14FF0FF301D
:103F5000AEE7B34804810020AAE71FB50446B04885
:103F6000007A00F0030054F820000190AC48007A79
:103F700000F0040010B1019840420190A848007A76
:103F8000C0F3C10054F820000290A548007A00F068
:103F9000200010B1029840420290A148007AC0F37C
:103FA000811054F8200003909D48008900F480702F
:103FB00010B10398404203909A49019880FB010197
:103FC000800F40EA810001909649029880FB011021
:103FD000820042EA917002909249039880FB01109E
:103FE000820042EA917003900198000E8DF8000063
:103FF0000198000C8DF801000198000A8DF802006C
:104000000198C0B28DF803006A4604214FF4747021
:10401000FFF708FB18B14FF0FF3004B010BD029855
:10402000000E8DF800000298000C8DF80100029837
:10403000000A8DF802000298C0B28DF803006A46AB
:1040400004214FF47570FFF7EDFA10B14FF0FF3017
:10405000E3E70398000E8DF800000398000C8DF83C
:1040600001000398000A8DF802000398C0B28DF891
:1040700003006A4604214FF47670FFF7D3FACCE7C9
:1040800070B588B0064601A8FEF7BBFCBDF8040079
:104090000021C90341EA5045C4036148007A00F099
:1040A000030056F8200005905D48007A00F00400F7
:1040B00010B10598404205905948007AC0F3C100FC
:1040C00056F8200006905648007A00F0200010B103
:1040D0000698404206905248007AC0F3811056F884
:1040E000200007904E48008900F4807010B10798B6
:1040F000404207900598C117A0FB042301FB04313F
:1041000000FB0510810041EA927005900698C117E6
:10411000A0FB042301FB043100FB0510810041EAF0
:10412000927006900798C117A0FB042301FB04318D
:1041300000FB0510810041EA927007900598000E7F
:104140008DF808000598000C8DF809000598000A04
:104150008DF80A000598C0B28DF80B000698000E85
:104160008DF80C000698000C8DF80D000698000ADA
:104170008DF80E000698C0B28DF80F000798000E5B
:104180008DF810000798000C8DF811000798000AB0
:104190008DF812000798C0B28DF8130002AA0C2106
:1041A0004FF42570FFF73EFA08B070BD30B585B00A
:1041B00004461DA207CA02AB07C3C82C03DD4FF09B
:1041C000FF3005B030BDC82090FBF4F0401E85B232
:1041D000280A8DF80000E8B28DF801006A46022135
:1041E00040F21620FFF71EFA10B14FF0FF30E8E75B
:1041F00002AA0C2140F6C120FFF714FA10B14FF0CB
:10420000FF30DEE7064884810020DAE7080E020866
:104210004CCD6C000CC92C00365676002646660044
:10422000DC16002009E3CA02FEF2ABC4AAF1DFDF0C
:10423000BBAFDFDF0146F948808908800020704766
:10424000F0B52DED028B83B006460F4606F0070051
:1042500010B1B7F5C86F05DD4FF0FF3003B0BDEC0E
:10426000028BF0BD00EE107AB8EE400ADFEDEC0AEA
:1042700080EE208A01A8FEF740FB9DF8040002288A
:1042800006D0042817D0082828D010284CD138E0B0
:104290009FEDE40A28EE000ABCEEC00A10EE100AF8
:1042A00084B29FEDE10A28EE000ABCEEC00A10EECF
:1042B000100A85B23BE09FEDDD0A28EE000ABCEE55
:1042C000C00A10EE100A84B29FEDD90A28EE000A47
:1042D000BCEEC00A10EE100A85B228E09FEDD50AA8
:1042E00028EE000ABCEEC00A10EE100A84B29FED60
:1042F000D20A28EE000ABCEEC00A10EE100A85B2FF
:1043000015E09FEDCE0A28EE000ABCEEC00A10EEC2
:10431000100A84B29FEDCA0A28EE000ABCEEC00A59
:1043200010EE100A85B202E04FF0FF3096E700BFB2
:1043300020128DF80800E0B28DF8090028128DF8DF
:104340000A00E8B28DF80B0006F00100A0B102AA45
:1043500002214FF4EA70FFF765F910B14FF0FF301A
:104360007CE70DF10A0202214FF49270FFF75AF92F
:1043700010B14FF0FF3071E706F00200A0B102AAC1
:1043800002214FF4EC70FFF74DF910B14FF0FF3000
:1043900064E70DF10A0202214FF49470FFF742F92D
:1043A00010B14FF0FF3059E706F00400A0B102AAA7
:1043B00002214FF4EE70FFF735F910B14FF0FF30E6
:1043C0004CE70DF10A0202214FF49670FFF72AF92B
:1043D00010B14FF0FF3041E700203FE738B5044609
:1043E0000020009004F0010020B19DF8000040F092
:1043F0003000009004F0020020B19DF8000040F071
:104400000C00009004F0040020B19DF8000040F082
:10441000030000906A4601214FF4A470FFF702F9EF
:1044200038BD38B50446012C01DA012402E0042C21
:1044300000DD0424601EC0B200906A46012140F2F3
:104440004F10FFF7EFF838BD38B50446052094FB50
:10445000F0F085B228128DF80000E8B28DF8010066
:104460006A4602214FF4EF70FFF7DCF838BD38B52B
:104470000446052094FBF0F085B228128DF8000068
:10448000E8B28DF801006A4602214FF4ED70FFF7A3
:10449000C9F838BDF8B505460E464FF47A7095FB5D
:1044A000F0F000FB06F4200E8DF80000200C8DF8D3
:1044B0000100200A8DF80200E0B28DF803006A4680
:1044C00004214FF4AE70FFF7ADF8F8BD38B50446DF
:1044D000052094FBF0F084B220128DF80000E0B2C9
:1044E0008DF801006A4602214FF4AD70FFF79AF88B
:1044F00038BD38B50446052094FBF0F084B2201294
:104500008DF80000E0B28DF801006A4602214FF4F8
:10451000AC70FFF787F838BD38B5044614B94FF0D2
:10452000FF3038BD6A4604214FF45870FFF7B7F8E2
:1045300010B14FF0FF30F4E79DF8000000069DF841
:10454000011040EA01409DF8021040EA01209DF868
:104550000310084320600020E3E738B50446200E2E
:104560008DF80000200C8DF80100200A8DF8020063
:10457000E0B28DF803006A4604214FF45870FFF74B
:1045800051F838BD38B5044614B94FF0FF3038BD86
:104590006A4604214FF47170FFF781F810B14FF0B3
:1045A000FF30F4E79DF8000000069DF8011040EA96
:1045B00001409DF8021040EA01209DF803100843D5
:1045C00000EB8000800020600020E0E738B5044662
:1045D0001420B4FBF0F4200E8DF80000200C8DF8B0
:1045E0000100200A8DF80200E0B28DF803006A464F
:1045F00004214FF47170FFF715F838BD38B5044643
:1046000004B320208DF8000028208DF80100302010
:104610008DF8020038208DF8030018E0DC16002029
:10462000000048430000804600004046000000466D
:104630000000C045000080450000404500000045E6
:104640000000C044A3220421684618F064FF6A46B3
:10465000042140F69E20FEF7E5FFFDF71FFC38BD64
:1046600038B5044664B1C0208DF80000C2208DF832
:104670000100C4208DF80200C6208DF8030004E07C
:104680008B220421684618F046FF6A46042140F652
:104690009820FEF7C7FFFDF701FC38BD3EB5044684
:1046A0006CB1FDA1D1E900208968CDE9002002911B
:1046B0006A4609214FF49760FEF7B4FF3EBDF9A2A8
:1046C000D2E900109268CDE9010200916A46092101
:1046D0004FF49760FEF7A6FFF0E73EB504460220D0
:1046E0008DF80000CA208DF80100E3208DF802004B
:1046F00009208DF803006A4604216820FEF792FF26
:10470000A3208DF8000004F0400048B1C0208DF8CF
:104710000100C8208DF80200C2208DF8030006E0D9
:10472000A3208DF801008DF802008DF8030004F439
:10473000C07048B1C4208DF80400CC208DF805006D
:10474000C6208DF8060006E0A3208DF804008DF841
:1047500005008DF80600A3208DF807008DF80800ED
:104760008DF809006A460A2140F6A720FEF75AFF95
:1047700004F0030018B120208DF8000002E0D820DA
:104780008DF800006A46012140F6B620FEF74AFF88
:1047900004F0200018B10120FFF780FF02E00020A4
:1047A000FFF77CFF04F4C07008B304F4807060B1BC
:1047B000B2208DF800008B208DF80100B6208DF816
:1047C00002009B208DF803000BE0B0208DF8000064
:1047D00080208DF80100B4208DF8020090208DF823
:1047E00003006A46042140F6A220FEF71BFF04F0F6
:1047F000010020B3F8208DF800006A4601214FF433
:104800000B60FEF70FFFFA210720FFF719FD0720C5
:10481000FFF7E4FD0120FFF704FE6420FFF714FE1C
:104820004FF4FA70FFF723FEC821A148FFF732FECC
:104830002820FFF74BFE0A20FFF75BFE08E0D82098
:104840008DF800006A4601214FF40B60FEF7EAFE86
:1048500004F0020018B1D9208DF8000002E0D82041
:104860008DF800006A46012140F23D70FEF7DAFE45
:1048700004F0040018B10120FFF7F2FE02E000206E
:10488000FFF7EEFE04F0100018B10120FFF7B6FEAE
:1048900002E00020FFF7B2FE44F00800854948819D
:1048A000FDF7FCFA00208349887304F0400018B13A
:1048B0000846807B801D887304F4C07020B17D4859
:1048C000807B801D7B49887304F0140020B17948F7
:1048D000807B10307749887304F0030020B175485D
:1048E000807B001D7349887300203EBD01467148DE
:1048F00040890880002070472DE9F0410446E078A7
:1049000000F0C006E07800F03F05607800F001009C
:1049100098B1EF102846E91705EB5171C910A5EBC6
:10492000C101491C01F0FF086248006820B16148DC
:10493000414602683846904700BF607800F00800A2
:1049400030B15C48406818B1B0115A4A5168884784
:104950000020BDE8F08110B586B0044656A207CA13
:1049600003AB07C357A207CA8DE80700012C09D083
:10497000022C0ED103AA0B2140F68220FEF752FE34
:1049800006B010BD6A460B2140F68220FEF74AFEB3
:10499000F6E74FF0FF30F3E72DE9F04F8DB0074613
:1049A000884615469946DDE9166B002400203080C4
:1049B0004049887B5A4605A9FEF77FF918B1601E69
:1049C0000DB0BDE8F08F3B48807A00F0140000285D
:1049D00061D09DF8140000069DF8151040EA0140D2
:1049E0009DF8161040EA01209DF817100843286032
:1049F0009DF8180000069DF8191040EA01409DF846
:104A00001A1040EA01209DF81B10084368609DF8C9
:104A10001C0000069DF81D1040EA01409DF81E1084
:104A200040EA01209DF81F100843A8609DF820006F
:104A300000069DF8211040EA01409DF8221040EA4E
:104A400001209DF823100843E86004F11000C4B26F
:104A5000286800140190686800140290A868001487
:104A60000390E8680014049001984043029901FB08
:104A70000100039901FB0100049901FB010ABAF14D
:104A8000706F02DBBAF1885F22DDFDF707FA0020C4
:104A90003080401E94E721E0B8AAB38DB4980D355C
:104AA0005D000000B8AAAAAAB088C3C5C70000006C
:104AB00009E3CA02DC160020D8B1B9F38BA391B682
:104AC00009B4D900DAB1B9F38BA391B6DAB4DA003C
:104AD000B6F9000040F48070308000BF3448807A1E
:104AE00000F0400020B305A9601C085C095D40EAA5
:104AF000012000B2A8F8000005A9E01C095C05AA85
:104B0000A01C105C41EA002000B2A8F8020005A930
:104B1000601D095C201D105C41EA002000B2A8F86D
:104B20000400A01DC4B2B6F9000040F008003080B7
:104B30001F48408900F4C07008B305A9601C085CD8
:104B4000095D40EA012000B2388005A9E01C095C3B
:104B500005AAA01C105C41EA002000B2788005A9DB
:104B6000601D095C201D105C41EA002000B2B88085
:104B7000A01DC4B2B6F9000040F0700030800C48AF
:104B8000807A00F0030018B105A90819FFF7B4FEF8
:104B90004846FDF7F0FC002012E70146044801609A
:104BA0000020704701460248416000207047000025
:104BB000DC16002070B505460C4600F0DBF9D0206D
:104BC00000F084FA00F017FA18B100F0F5F90120AE
:104BD00070BD284600F07AFA00F00DFA204600F089
:104BE00075FA00F008FA18B100F0E6F90120EFE7D5
:104BF00000F0E2F90020EBE770B504460025BC2C7C
:104C000001DB012510E0622C01DB02250CE02A2CDF
:104C100001DB032508E0142C01DB042504E00A2C49
:104C200001DB052500E0062529461A20FFF7C2FF13
:104C300070BD70B50446B4F57A7F01DD4FF47A7427
:104C4000042C00DA04244FF47A7090FBF4F0401E38
:104C5000C5B229461920FFF7ADFF0546264604EBED
:104C6000D671C1F34F00FFF7C7FF70BD70B50446A2
:104C700000F080F9D02000F029FA00F0BCF92046BD
:104C800000F024FA00F0B7F900F074F9D12000F038
:104C90001DFA00F0B0F9002000F045FA054600F0DA
:104CA0008BF9284670BD10B50446E006010E1C20A5
:104CB000FFF780FF10BD10B50446E006010E1B2073
:104CC000FFF778FF10BD10B500F036F980216B209A
:104CD000FFF770FF642003F051FE00216B20FFF707
:104CE00069FF0320FFF7E7FF0020FFF7DCFF32201A
:104CF000FFF79FFF00213820FFF75CFF00216A20AB
:104D0000FFF758FF00212320FFF754FF80213720B1
:104D1000FFF750FF7520FFF7A9FF0446682C0BD161
:104D200001216B20FFF746FF00216C20FFF742FFB7
:104D30006420FFF77EFF01E0012010BD0020FCE7AA
:104D40002DE9F04106460F4614461D4600F012F9C3
:104D5000002141EA4601C8B200F0B8F900F04BF971
:104D600020B100F029F90120BDE8F081384600F0BB
:104D7000ADF900F040F900F0FDF8012101EB46012A
:104D8000C8B200F0A3F900F036F90DE0012C04D10F
:104D9000002000F0C8F9287003E0012000F0C3F9FA
:104DA0002870601EC4B26D1C002CEFD100F004F915
:104DB0000020D9E710B52DED088B82B001AB02229F
:104DC00041216820FFF7BCFF9DF805009DF8041005
:104DD00040EA012004B220461BF035FB41EC1B0BDE
:104DE0009FED500B53EC102B1BF03CF941EC1A0BD0
:104DF0009FED4E0B53EC102B1BF080F841EC190B80
:104E00001BF04AF808EE100A9FED4A0A28EE000A45
:104E1000BDEEC00A10EE100A00B202B0BDEC088B65
:104E200010BD2DE9FC4104460D4616466B46062290
:104E300043216820FFF784FF0746BFB99DF80100B2
:104E40009DF8001040EA012000B220809DF8030088
:104E50009DF8021040EA012000B228809DF805006C
:104E60009DF8041040EA012000B230803846BDE8C9
:104E7000FC812DE9FC4104460D4616466B46062290
:104E80003B216820FFF75CFF0746BFB99DF8010092
:104E90009DF8001040EA012000B220809DF8030038
:104EA0009DF8021040EA012000B228809DF805001C
:104EB0009DF8041040EA012000B230803846BDE879
:104EC000FC812DE9F04105460E461746984600F054
:104ED00051F8002141EA4501C8B200F0F7F800F0AE
:104EE0008AF820B100F068F80120BDE8F081304672
:104EF00000F0ECF800F07FF800240CE018F8040053
:104F000000F0E4F800F077F818B100F055F801204F
:104F1000EBE7601CC4B2BC42F0DB00F04DF80020AF
:104F2000E3E700000000000000407540A4703D0A67
:104F3000D74342400000C8421CB50121022004F0C2
:104F400089FB0320009001208DF8040000208DF8DB
:104F5000060003208DF8050001208DF80700694642
:104F6000884803F0EBFF0120874908608749C1F8B2
:104F700084021CBD10B58348006820F00C008149F4
:104F800008600846006840F00400086001207E497F
:104F9000091D08607D49C1F88002042003F0A6FCC9
:104FA00000207949091D0860042003F09FFC0020BF
:104FB0007649C1F8800210BD10B57248006820F033
:104FC0000C00704908600846006840F00400086062
:104FD00000206D4908606D49C1F88402042003F087
:104FE00085FC0120684908606849C1F884020420F2
:104FF00003F07CFC10BD10B500246248006820F06E
:105000000C006049086008460068086001205E499D
:10501000091D086003F06AFC01205C49C1F88002A8
:1050200003F064FC07E0601CC4B2FA2C03DDFFF758
:10503000C3FF012010BD54487C3800680028F2D11D
:105040005149086000BFF5E710B500204E490860DF
:105050004C48006820F00C004A4908600846006887
:1050600040F00400086000204849C1F88402022092
:1050700003F03CFC012044490860022003F036FCA8
:1050800000204249C1F8800210BD10B500203E4901
:1050900008603C48006820F00C003A490860084667
:1050A000006840F00400086001203849C1F884021B
:1050B000022003F01BFC012033490860022003F0AA
:1050C00015FC00203149C1F8800210BD70B50446BE
:1050D0002C48006820F00C002A4908600846006847
:1050E00040F004000860002027490860002517E010
:1050F000E0092549091D08606006040E022003F03E
:10510000F5FB01202149C1F88002022003F0EEFBEB
:1051100000201D490860022003F0E8FB681CC5B2AE
:10512000082DE5DB70BD70B5054600241548006804
:1051300020F00C001349086008460068086000264B
:1051400016E0002010490860022003F0CFFB012088
:105150000E49C1F880026006040E0B487C380068D6
:1051600008B1601CC4B2012003F0C0FB701CC6B2C1
:10517000082EE6DB15B9FFF788FF01E0FFF764FFB3
:10518000204670BD000402408082404200804042C0
:1051900010B5044622464FF48061AF4803F04EFF3D
:1051A000052003F0A3FB10BD10B5044622460821DC
:1051B000A94803F043FF052003F098FB10BD10B58C
:1051C0000821A54803F01CFF0446052003F08EFBD0
:1051D000204610BD1CB50121022004F03BFA01203D
:1051E0008DF804008DF806004FF4816000900120D6
:1051F0008DF8070002208DF805006946964803F0F7
:105200009DFE4FF48061944803F014FF08219248FA
:1052100003F010FF1CBD10B50120FFF7C5FF0120F2
:10522000FFF7B6FF0020FFF7BFFF0020FFF7B0FF3A
:1052300010BD10B50020FFF7B7FF0120FFF7A8FF52
:105240000120FFF7B1FF10BD70B5054600240DE049
:105250008021214101EA0500FFF7A6FF0120FFF7A9
:1052600097FF0020FFF794FF601CC4B2082CEFDB0F
:1052700070BD10B504462046FFF796FF0120FFF7EA
:1052800087FF0020FFF784FF10BD70B5054600269C
:105290000120FFF789FF00240EE00120FFF778FFCF
:1052A000FFF78DFF012802D1802020410643002016
:1052B000FFF76EFF601CC4B2082CEEDB1DB90120A5
:1052C000FFF7D7FF02E00020FFF7D3FF304670BDA5
:1052D00010B50120FFF768FF0120FFF759FFFFF726
:1052E0006EFF04460020FFF753FF204610BD70B547
:1052F00004460D461646FFF78EFF002141EA4401A1
:10530000C8B2FFF7A1FFFFF7E3FF18B1FFF791FF66
:10531000012070BD2846FFF797FFFFF7D9FF304601
:10532000FFF792FFFFF7D4FF18B1FFF782FF0120CC
:10533000EFE7FFF77EFF0020EBE770B504460D4670
:10534000FFF769FF002141EA4401C8B2FFF77CFF83
:10535000FFF7BEFF2846FFF777FFFFF7B9FFFFF71C
:105360005AFF012101EB4401C8B2FFF76DFFFFF7BF
:10537000AFFF0020FFF789FF0646FFF75AFF3046D0
:1053800070BD2DE9F04105460E4617469846FFF7D9
:1053900042FF002141EA4501C8B2FFF755FFFFF780
:1053A00097FF20B1FFF745FF0120BDE8F0813046AF
:1053B000FFF74AFFFFF78CFF00240CE018F8040009
:1053C000FFF742FFFFF784FF18B1FFF732FF01201C
:1053D000EBE7601CC4B2BC42F0DBFFF72AFF002001
:1053E000E3E72DE9F04106460F4614461D46FFF758
:1053F00012FF002141EA4601C8B2FFF725FFFFF77F
:1054000067FF20B1FFF715FF0120BDE8F0813846A6
:10541000FFF71AFFFFF75CFFFFF7FDFE012101EB2D
:105420004601C8B2FFF710FFFFF752FF0DE0012C55
:1054300004D10020FFF729FF287003E00120FFF7C7
:1054400024FF2870601EC4B26D1C002CEFD1FFF742
:10545000F0FE0020D9E700000004024070B50446C9
:105460000D462A4621460D20FFF741FF70BD10B5BD
:10547000044621460D20FFF760FF10BD10B50D203A
:10548000FFF7F5FFFF2801D0002010BD0120FCE749
:105490001CB504466B46062200210D20FFF7A1FF34
:1054A0009DF800009DF8011040EA012020609DF861
:1054B00002009DF8031040EA012060609DF804009E
:1054C0009DF8051040EA0120A0602068404220605D
:1054D0009D4920680968401A20609C4960680968F5
:1054E000401A60609A49A0680968401AA06094ED6B
:1054F000010AB8EEC00A9748D0ED000A20EE200A53
:10550000BDEEC00A84ED010A94ED020AB8EEC00AAD
:105510009148D0ED000A20EE200ABDEEC00A84EDCD
:10552000020A1CBD884A01681160884A41681160FE
:10553000874A8168116090ED030AD0ED040A80EE7D
:10554000201A844981ED001A90ED030AD0ED050A76
:1055500080EE201A804981ED001A704700207A49B8
:1055600008607A4908607A490860B7EE000A79480D
:1055700080ED000AB7EE000A774880ED000A704718
:1055800010B504460920FFF772FF744908700846F9
:10559000007820F0030008700846007840EA040113
:1055A0000920FFF75BFF10BD10B56D48007800F0D3
:1055B000C0006C49097801F0300108436A49097854
:1055C00001F00C0108436549097801F00301084323
:1055D0006649087080210A20FFF740FF01210B2057
:1055E000FFF73CFF40210A20FFF738FF5F480178B2
:1055F0000920FFF733FF0D20FFF739FFFF2809D0FF
:105600000D20FFF734FF0446214659A017F006FD90
:10561000012010BD0920FFF72AFF5449097888426C
:1056200004D061A017F0FAFC0120F2E70020F0E7B7
:1056300070B52DED0C8B0446B0EE408AF0EE608A1A
:10564000B1EE480ADFED610A80EE201AF0EE419AD1
:10565000B1EE680ADFED5D0A80EE201AB0EE41AAD5
:10566000B0EE690A1AF0A4F8D4ED000AF8EEE00AE8
:1056700060EE20AAB0EE4A0A1AF04CF9D4ED010A05
:10568000F8EEE00A20EE20BAB0EE690A1AF042F90C
:105690004BEE00AAB0EE4A0A1AF08AF8D4ED020ADC
:1056A000F8EEE00A20EE20BAB0EE690A1AF032F9FC
:1056B0004BEE40AA1AEE905AB0EE4A0A1AF078F869
:1056C000D4ED010AF8EEE00A60EE20AAB0EE4A0A34
:1056D0001AF020F9D4ED020AF8EEE00A40EE80AAB2
:1056E0001AEE906A28461BF00BFA41EC1C0B304670
:1056F0001BF006FA41EC1D0BB0EE4C1AF0EE6C1AE2
:10570000B0EE4D0AF0EE6D0A19F0CEFEB0EE40BAE2
:10571000F0EE60BA51EC1B0B1AF0BEFB00EE100A63
:10572000DFED2B0A60EE200A9FED2A1A80EE810A37
:10573000DFED270A30EE200AB0EE409AB0EE490ABB
:10574000BDEC0C8B70BD0000780000207C000020B8
:1057500080000020840000208800002077000020C6
:105760007400002076000020750000208C000020CE
:10577000514D43353838334C496E6974466C61730A
:10578000652C2063616E2774207265616420494432
:10579000204F522072656164204944203D203078BA
:1057A00025780D0A00000000514D43353838334C40
:1057B000496E6974466C6173652C2063616E277451
:1057C0002072656164207265670D0A00E12E6542F2
:1057D00000003443DA0F494070B504460D462A46AE
:1057E00021465120FFF783FD70BD10B504462146C8
:1057F0005120FFF7A2FD10BD70B504460D461646B8
:1058000033462A4621465120FFF7BBFD70BD70B5D7
:1058100004460D46164633462A4621465120FFF7D8
:10582000E0FD70BD10B50D20FFF7DFFFFF2801D0B0
:10583000012010BD0020FCE7F0B503460C461546DC
:10584000642093FBF0F0C6B2642093FBF0F700FBFA
:105850001730C1B2132E02DD01F16400C1B2084657
:10586000CF1701EB977701EBA707BAB2072092FB9E
:10587000F0F700FB172082B25719601EDFF89CC0BA
:105880001CF80000384482B2CF1701EB9777BF10A5
:10589000A1EB87071FB9032C01DA501E82B2072043
:1058A00092FBF0F700FB172082B202B90722D0B2B8
:1058B000F0BD1CB508210020FFF78EFF0220FFF786
:1058C00094FF044604F0800068B1002021211523D4
:1058D0001F22CDE900100A2140F2E77019F054FAB6
:1058E00019F0E4F91CBD19F0E1F9FBE701460A20C3
:1058F00091FBF0F200FB12100A2291FBF2F200EB96
:105900000210C0B27047014601F00F000A1102EB0D
:10591000820200EB4200C0B270470000FE1902088C
:1059200038B5054628128DF80000E8B28DF8010060
:10593000FFF771FC8820FFF787FCFFF7C9FC18B15F
:10594000FFF777FC012038BD00240CE01DF80400AF
:10595000FFF77AFCFFF7BCFC18B1FFF76AFC0120E7
:10596000F1E7601CC4B2022CF0DBFFF762FC002000
:10597000E9E770B504460625FFF74DFC8920FFF7DF
:1059800063FCFFF7A5FC0DE0012D04D10020FFF71B
:105990007CFC207003E00120FFF777FC2070681E7C
:1059A000C5B2641C002DEFD1FFF743FC002070BD91
:1059B000F0B52DED068B85B006460F469FED3B0AF0
:1059C000B0EE408A9FED390AF0EE408A42F606407A
:1059D000FFF7A6FF002866D103A8FFF7CAFF9DF8CE
:1059E0000D009DF80C1040EA01249DF810009DF870
:1059F0000F1040EA012500EE104AB8EE400ADFED34
:105A00002C0A20EE200ADFED2B0A80EE201A9FEDF3
:105A10002A0A31EE400AB0EE408A00EE105AB8EE83
:105A2000400ADFED260A20EE200ADFED220A80EE92
:105A3000201AF0EE418ABBEE040AB4EEC08AF1EE01
:105A400010FA2EDB9FED1E0AB4EEC08AF1EE10FABA
:105A500027D8F5EEC08AF1EE10FA22DB9FED170A87
:105A6000F4EEC08AF1EE10FA1BD818EE900A1BF083
:105A700047F841EC190B18EE100A1BF041F841EC05
:105A80001A0B8DED009B53EC1A2B0EA017F0C6FAE3
:105A900086ED008AC7ED008A002005B0BDEC068BBC
:105AA000F0BD0120F9E70120F7E700000000000049
:105AB00000002F4300FF7F47000034420000C8422F
:105AC0000000FA4254656D70657261747572653AD2
:105AD000252E31662048756D69646974793A252EE2
